:10000000201B0020E1C60200D9670000DD67000068
:10001000A70A0A010002000004180FAC106498013E
:1000200000000000000000000000000000000000D0
:1000300000000000A83B03000000000000000000DA
:100040000000000000000000FFFFFFFFFFFFFFFFB8
:10005000FFFFFFFF00C0030041000000005004004C
:10006000FFFFFFFFFFFFFFFF280000000000000070
:100070000000000000000000000000000000000080
:10008000504A0020503E0020503E0020503E0020AC
:10009000201B0020B86D030064150300C011002070
:0C00A0009011002000500400504A002085
:10020000201B0020E1C60200D9670000DD67000066
:10021000E5670000E1670000E9670000DFC6020053
:10022000DFC60200DFC60200DFC60200DFC6020032
:10023000ED670000DFC60200DFC60200DFC6020075
:10024000BD800000DD870100A96A00006068000031
:100250009D82010049880100E987010001880100B1
:10026000E1870100ED770000C1780000AD92000049
:10027000B111010060680000606800006068000063
:10028000DFC6020060680000E578000060680000DA
:10029000606800006068000060680000606800003E
:1002A000606800006068000060680000606800002E
:1002B0004D880100E5870100E1700100417E0000EA
:1002C0008D88010060680000BD4501006068000085
:1002D00060680000606800006068000060680000FE
:1002E00060680000DFC60200DFC602006068000030
:0C02F0006068000060680000DFC60200CB
:1002FC00F8B500BFF8BC08BC9E467047F8B500BF07
:10030C00F8BC08BC9E46704710B5054C237833B931
:10031C00044B13B10448AFF300800123237010BDCC
:10032C0090200020000000004068030008B5034B3B
:10033C001BB103490348AFF3008008BD0000000067
:10034C009420002040680300154B002B08BF134B72
:10035C009D46A3F5803A00218B460F461348144A5C
:10036C00121A31F01EF80F4B002B00D098470E4B91
:10037C00002B00D098470020002104000D000D48F0
:10038C00002802D00C48AFF3008030F0CBFF2000E7
:10039C00290011F029F930F0B1FF00BF000008006E
:1003AC00201B002000000000000000009020002016
:1003BC00503E0020000000000000000008B50120A5
:1003CC0003F082FD044B00221A7001200CF0E2FEB7
:1003DC00BDE8084003F067BD402F002008B50120A0
:1003EC0003F072FD044B00221A7001200EF082F80B
:1003FC00BDE8084003F057BD582F002008B5012078
:10040C0003F062FD044B00221A7001200CF0C0F8BE
:10041C00BDE8084003F047BD502F002008B501206F
:10042C0003F052FD044B00221A70012013F034F833
:10043C00BDE8084003F037BD482F002008B5012067
:10044C001FF00CFF02481FF07FFE024B187008BD16
:10045C0070170300602F002008B503F059FB01282A
:10046C0005D0034B1878BDE808401FF051BE08BDFD
:10047C00602F002010B50C1E03D11FF0D7FD0020FB
:10048C0010BD02DB1FF0DEFDF9E70220F8E7B1F545
:10049C00000F02D20902FFF7EDBF022070470000E7
:1004AC002DE9F0419846154B154F1B8800264FF04F
:1004BC000C0CF4B29C4202D30220BDE8F0810CFB80
:1004CC0004F57C197D5D854205D165888D4202D18C
:1004DC002579954201D00136EBE701F077F9002838
:1004EC00EAD04146A068FFF7C5FF0028E4D19DF88B
:1004FC00183063719DF81C30A371DEE7581B002087
:10050C00281B002013B59DF81040CDE9003413468C
:10051C000122FFF7C5FF02B010BD13B59DF81040C6
:10052C00CDE9003413460022FFF7BAFF02B010BD2C
:10053C0007B500230093FFF7F0FF03B05DF804FB51
:10054C000E4BF0B51F880E4E00254FF00C0CEBB285
:10055C00BB4201D30220F0BD0CFB03F3F418F35C97
:10056C00834205D163888B4202D12379934201D017
:10057C000135ECE7A36800201870ECE7581B00204D
:10058C00281B00200122FFF7DBBF0022FFF7D8BF9A
:10059C002DE9F04F1E4693B0FF23022E804689466C
:1005AC0014461C9D9DF874A08DF81E3040F2BA8044
:1005BC002B785A072BD5042E40F2B48095F804B052
:1005CC005D4A002302EBC301DFB20979FF2907D092
:1005DC0001330A2BF6D1209B002B40F0A780FF277C
:1005EC00002308AA0DF11F0120798DF81F3002F0AD
:1005FC006AFD78B1BDF82C3023809DF81F0003F004
:10060C004BFC8DF81D00C8B113B0BDE8F08F95F808
:10061C0002B0D5E7207901F0F5F8FF28059000F03D
:10062C008380207903F050FC8DF81D000028EBD15D
:10063C00059B424800EB0310438823806188238884
:10064C004FF6FF72B8F1000F08BF4A46CDE9001211
:10065C0058465246002104F0FBFB18B1E38843F0E6
:10066C002003E380209B0F950DF11D010DA8CDE912
:10067C000D34ADF84090ADF842608DF844808DF8A3
:10068C0045A002F056FD10B19DF81D00BCE72846B0
:10069C0004F036FBA01D04F021FB224649464046DF
:1006AC0004F0E4FC80B2B0422CD39DF87C30039370
:1006BC00BDF8783002930DF11E03CDE900532246AC
:1006CC00F3B24946404600F080FD8DF81D00209A9B
:1006DC009DF81D30D2B15BBB9DF81E20FF2A08D0BF
:1006EC00092F06D8144B03EBC7010A71209A43F863
:1006FC0037209DF81D3013B9112002F0C6FC03F011
:10070C00D2FBC1E774238DF81D30E0E7BA2BF0D192
:10071C00E388DB06EDD5002301208DF81D3003F0B6
:10072C00FDF9E6E701206FE7A3206DE7B4206BE746
:10073C00BA2BEDD0E3E700BFAC200020A4300020A2
:10074C000023054A10B51946FF24D018047199509E
:10075C000833502BF9D110BDAC20002010B586B059
:10076C0008810A9C04949DF824400394BDF8204011
:10077C0002940124CDE9003413460A4601460420B4
:10078C00FFF706FF06B010BD10B586B00881089CB7
:10079C0004940024CDE902440124CDE9003413462D
:1007AC000A4601460320FFF7F3FE06B010BD13B551
:1007BC0000240094FFF7E8FF02B010BD2DE9FF41C3
:1007CC000F469046054688B381B37AB30026694636
:1007DC00F0B219F017FC044630B99DF80030032B29
:1007EC0006D00136502EF2D1204604B0BDE8F0817F
:1007FC009DF801202B799A42F3D1BDF802206B8829
:10080C009A42EED19DF806309DF8050000EB0320CE
:10081C0080B29DF804306B71288143463A462946D4
:10082C00FFF7C5FF0028DCD00446DDE70224DBE738
:10083C0010B586B0089C04940024CDE90244012430
:10084C00CDE9003413460A4601460620FFF7A0FE08
:10085C0006B010BD10B586B00A9C04949DF82440D7
:10086C000394BDF8204002940124CDE900341346D2
:10087C000A4601460520FFF78BFE06B010BDF0B509
:10088C0002288BB005460E4614461F460AD106A90F
:10089C00F0B219F0B7FB98B99DF8193023719DF897
:1008AC001C306371119B04930022109B0192CDE9C3
:1008BC000222009322463B4631462846FFF768FE4B
:1008CC000BB0F0BD13B500240194049C0094FFF709
:1008DC00D6FF02B010BD2DE9F04306468BB00F4693
:1008EC0090469946002506A9E8B219F08BFB044600
:1008FC0030B99DF81830012B06D00135502DF2D1AE
:10090C0020460BB0BDE8F0839DF8192033799A424C
:10091C00F3D1BDF81A2073889A42EED19DF81C30A1
:10092C007371CDE90309CDE90100CDF800803B4698
:10093C003246A9B20220FFF72BFE0028DDD0044678
:10094C00DEE700007FB505460E4620F0BFFC2A46C8
:10095C00044603460C49022003F02EFB8CB986B1E9
:10096C0001238DF80E3003230093224603AB36216E
:10097C004FF6FC708DF80C408DF80D5004F088FD8E
:10098C000446204604B070BDC8180300FF2810B5FB
:10099C000C4604D10220044903F00EFBFE20214634
:1009AC00BDE81040FFF7CEBF541A0300F8B51F4640
:1009BC000B8806460D461446002B69D14A88110453
:1009CC0048BF63783349042003F0F6FA6B8848F289
:1009DC000402934238D00FD848F20102934244D01B
:1009EC0048F20202934248D0132B0ED1A2786378BE
:1009FC00294903EB022229E048F20602934229D04E
:100A0C0038D348F2200293422CD03B46224629464A
:100A1C00304600F0BEFC70B93B46224629463046B3
:100A2C0010F036FE6A8848F221039A4203D16178AD
:100A3C00304602F050FB6B88B3F5004F02D908200A
:100A4C0002F086FB012024E0144A1549042003F02F
:100A5C00B3FADAE7134A1249042003F0C9FA2279EF
:100A6C001149F3E762781149F0E71149042003F0CA
:100A7C00A3FACAE722790F49E8E70F4A084904208C
:100A8C0003F0B6FAA27863780C4903EB0222DDE797
:100A9C000020F8BDDF1803005519030004190300EA
:100AAC000B1903001C190300221903003019030051
:100ABC006C19030086190300A8190300AD19030073
:100ACC002DE9F04788B00C46924699468046BDF811
:100ADC004060119D25F0F0FA8DF808800746CDE9AD
:100AEC000345ADF81460ADF816008DF818A08DF81C
:100AFC00199000F0FFF98DF81A0000F0FDF98DF84F
:100B0C001B0019F02AFD8DF81C0002A802F00FFB47
:100B1C00A8B933462A462146384603F019FE70B967
:100B2C0033462A4621463846FFF740FF38B9CDE90F
:100B3C00007033462A464146204604F0AFF908B00F
:100B4C00BDE8F0872DE9F74F0D9DBDF830609DF89D
:100B5C0038B08046894614461F4663B33E4A3F4927
:100B6C00022003F045FA2388002B67D040F20912CB
:100B7C00934265D03A4A3B49B3F5827F18BF0A4687
:100B8C006188009101963849022003F031FA2388DC
:100B9C006BB1022E0BD92B783449354A13F0010F67
:100BAC0018BF0A46AB783349022003F021FA3249C8
:100BBC00022003F001FA314A0023114602EBC30074
:100BCC00007958453ED152F833A0002301EBC30203
:100BDC00107958453CD1FF201071002241F8332088
:100BEC0047B9238833B9B4F90230002B02DB082053
:100BFC0002F04BFA012002F0ABFA55B12B78DB076F
:100C0C0007D5CDE90057334622464946404601F008
:100C1C0088F9BAF1000F06D0CDE9005733462246C9
:100C2C0049464046D0473346224649464046CDE9E0
:100C3C000C5703B0BDE8F04F02F049BA104A9FE7D9
:100C4C00104A9DE701330A2BB8D14FF0000ABCE7DC
:100C5C0001330A2BBAD1C3E7741803007C180300C4
:100C6C00671803006A180300861803007429030030
:100C7C006D180300B5180300CE210300AC20002032
:100C8C006018030064180300962813B5044635D089
:100C9C002ED891283DD0942830D0902814D100F033
:100CAC0021F9214B0090214A2149022003F084F9BB
:100CBC00BC2C29D11F49022003F07EF902F041FA25
:100CCC0002F040FA02F03EFA20460EF079FD204682
:100CDC000DF084FB20460CF0EFFD204611F0BEF821
:100CEC0000B31549022002B0BDE8104003F064B90E
:100CFC00AF2807D8AB280AD29828E5D10F4B0B4A5E
:100D0C000F4909E0BC28C9E727F0C6FBDAE79128B0
:100D1C00F4D1054B054A0B49022003F04DF903F0C1
:100D2C003EFFD1E702B010BDBE190300C719030086
:100D3C00CE190300DB190300131A0300021A030077
:100D4C000A1A0300F919030013B50F4C002003F025
:100D5C00A3F823686BB101A800F08AFA48B923689C
:100D6C001A789DF804309A4203D0012A07D1022B3D
:100D7C0005D1032301A8ADF8043021F08DF903F05F
:100D8C0092F802B010BD00BF9821002010B50446A7
:100D9C0003F087F8204602F0DCF9BDE8104003F0C0
:100DAC0082B804F0E9BC000010B508F0A4FE0123E1
:100DBC0000224FF4E13120200FF034FF05F0FEFA51
:100DCC00044605F09BFF224603461249012003F01E
:100DDC00F3F805F0F9FA044605F09EFF22460346A7
:100DEC000D49012003F0E8F805F0E8FA012303FAB5
:100DFC0000F040F2A17318420BD0084C207805F09B
:100E0C00E9FA207805F0A2FB2078BDE8104005F047
:100E1C00A3BC10BD4E1B0300641B03005B1B002016
:100E2C0037B50022114601A811F0F0F8002846D180
:100E3C001EF01CFF034640B12249234A012003F057
:100E4C00BBF8A021214805F0A9F803F01BF8FFF727
:100E5C0077FC00F0D9FA00F08BFA0221084603F077
:100E6C00B7FBFFF771FF02F0BBFB194B194C1A4D86
:100E7C0041F254221A80194A52231380184A012035
:100E8C0013801BF08FF805F039FE1EF099FF02F06D
:100E9C003FFE012801D000F072FA0FF015FFFFF7AA
:100EAC00DBFA2021002002F053FD28B1224629460E
:100EBC004FF6FF7003F09CF802F0F7FFE3E70198A0
:100ECC0003B030BDA71A030074180300B81A03004E
:100EDC000C200020351B03004A1B03000E200020B1
:100EEC00102000201FF038B81FF042B81EF018BEBA
:100EFC001EF088BE25F0E0BB1FB5684625F0EAF869
:100F0C00C8B902A927F016F8082269460DEB0200B1
:100F1C0002F0D3FE10B9002004B010BD02A90120CC
:100F2C0027F008F8082269460DEB020002F0C5FE16
:100F3C0090B90120F0E725F0BFF84FF6FF73984207
:100F4C00044609D0002027F00DF88442E3D001209C
:100F5C0027F008F88442ECD0FF20DDE77FB505468A
:100F6C0002F09FFF1EF0F8FF40B16B88B3F5006FE5
:100F7C0004D1681D02F0ADF8044616E0284602F0D4
:100F8C00E5F8D8B90446E6B26946304619F03AF8A5
:100F9C0080B99DF800306BB92946304619F098F8A5
:100FAC000028E9D075280BD08C2402F07CFF204659
:100FBC0004B070BD0134502CE5D1F5E78D24F4E775
:100FCC008B24F2E738B5054602F06BFF284602F099
:100FDC00BBF898B9284619F049F868B175280CBFC8
:100FEC008B24882423462A460549042002F0E4FF7A
:100FFC0002F059FF204638BD0446F3E78D24F7E78D
:10100C00841B030037B502A9FF2301F8013D0446F8
:10101C0002F055F818B19DF8070003B030BD094B2C
:10102C0003EB04131D7B19F09AFA854201D0FF20C3
:10103C00F3E7204600F030FA0028F8D0204600F004
:10104C0081FCEAE7A43000202DE9F04107460D466B
:10105C0002F037F80646F0B9384600F0D3FBFF280B
:10106C0019D00E4C04EB001494F80C8019F077FA9C
:10107C00804510D163882B80A3886B80A3792B715A
:10108C000121384600F064FC31466871384600F0A6
:10109C005FFC0126A8713046BDE8F081A430002029
:1010AC00F8B504460E46154600F0ACFBFF2802D1FD
:1010BC004FF6FF70F8BD0B4B03EB0010077B19F0DC
:1010CC004EFA8742F4D146B901222946204600F057
:1010DC0065FC0028ECD00088ECE7012EE8D100225A
:1010EC00F3E700BFA430002010B5044602F0D9FE8F
:1010FC002046FFF7C9FDBDE8104002F0D4BE000049
:10110C0037B50C4B1B681C5C94420D460AD90092F7
:10111C002346094A0949022002F04EFF00242046CA
:10112C0003B030BD002201460092234628461FF032
:10113C00D3FAF4E7D81B0020741803008F1A0300AD
:10114C00F0B599B0144603AD0F46064602F0A9FE61
:10115C00204652222946FFF7D3FF84B28CB10DF101
:10116C000A0024F099FF0DF10B0024F09DFF9DF96E
:10117C000B309DF80A20CDE9004539463046FFF783
:10118C009FFC02F090FE19B0F0BD2DE9F0419AB031
:10119C001D4605AC0F469046064602F082FE5222D2
:1011AC0021462846FFF7ACFF50B180B20090CDE944
:1011BC0001459DF88030424639463046FFF7C2FC67
:1011CC0002F071FE1AB0BDE8F0812DE9F743074635
:1011DC000E460A98BDF830809DF834901946154695
:1011EC001FF0A2FAFF2804463AD00B9B1870062F6A
:1011FC0034D8DFE807F0040404121929220003464E
:10120C002A463146384625F0BDF9054620461FF0E2
:10121C0023F9284603B0BDE8F0830C22034611469F
:10122C00284625F081F9F0E7EA7A0346CDE90089F2
:10123C001146284625F03AF9E7E703460C222946E1
:10124C00304625F0D9F8E0E70190EB7A00934A4656
:10125C002B463146404625F0F3F8D6E70225D5E774
:10126C001825D6E70822014902F0C4BC0D3D002028
:10127C0020F06EB913B5044602F013FE0DF1060012
:10128C0024F00AFF0DF1070024F00EFF9DF9072052
:10129C009DF80610204609F041FC30B99DF9072055
:1012AC009DF8061020460EF0C1FF02F0FCFD02B0C6
:1012BC0010BD38B504460D4602F0F3FD2946204614
:1012CC0009F076FD18B9294620460EF0BFFFBDE89F
:1012DC00384002F0E8BD38B504460D4602F0E1FD99
:1012EC002946204609F084FC18B9294620460EF000
:1012FC008BFFBDE8384002F0D6BD38B504460D462C
:10130C0002F0CFFD2946204609F09AFC18B929466F
:10131C00204601F023FFBDE8384002F0C4BD00F0C8
:10132C0044B870472DE9F041984686B00F4B1546EE
:10133C00064603A80F461C782CF0E0FE15F0FD0FB6
:10134C0012D030B9BDF80C309B0702D5032D08BF65
:10135C000324304600942B464246394601F0FCFEED
:10136C00204606B0BDE8F0810324F2E7FC20002003
:10137C0008B503F0E5FBBDE8084010F047BF08B521
:10138C0010F04EFEBDE8084003F008BC704701F0B9
:10139C00CCBE01F0D0BE30B4BDF80840BDF80C5046
:1013AC00CDE9024530BC0AF079B938B504460D4692
:1013BC0010F0B4F929462046BDE8384001F0D1BE02
:1013CC0001F0BBBE11F0E0BD10B5074A0123332B71
:1013DC00194601D1002006E00233D41814F8034C4E
:1013EC008442F4D1505C10BD9A1B030000EB8101C8
:1013FC00884201D1002070470388934201D1408874
:10140C0070470430F4E70000F0B587B04FF20123C9
:10141C00194AADF80030194B194DCDE904234FF49E
:10142C008072ADF80820174A02210023117016496A
:10143C00ADF80430ADF80C300DF1100E0DF1140CAC
:10144C0001AF02AE03AC01201DF803200A703EF878
:10145C0013204A803CF813208A80DA5D8A71F25C92
:10146C00487305EBC2028A601A5D0A7310310BB126
:10147C0007B0F0BD0123E7E70401E0A10002610021
:10148C0068210300FD200020A4300020014B1878B7
:10149C00704700BFFD200020034B03EB0010407B86
:1014AC0000F00100704700BFA43000204138032831
:1014BC008CBF002001207047044A821A0448921005
:1014CC00424392B202210348FFF790BF201F030052
:1014DC00CDCCCCCCD01B03000388B3F57C4F01D30F
:1014EC00FFF7EABF044A0548891A054A89104A439E
:1014FC0092B20021FFF77ABF081C0300CC1B03003B
:10150C00ABAAAAAA10B50C46018862888A420DD1F2
:10151C00037B21790B4009D0B2F57C4F08D3FFF740
:10152C00CBFF23891B1A5842584110BD0020FCE701
:10153C000120FAE738B514460D88D28895420AD1B5
:10154C000388B3F57C4F08D2FFF7C6FF23891B1A1B
:10155C005842584138BD0020FCE70120FAE7000052
:10156C002DE9F04F8BB04FF0000A01939DF85030ED
:10157C000593714BDFF8D0911B780491804615468A
:10158C0008935746089A5FFA8AF39A4201D8862044
:10159C0063E099F800300293D9F808300393029A6B
:1015AC0098F80030934240F0BF8099F80D30D8077E
:1015BC0009D5039B1B7907934FF0000B079A5FFA31
:1015CC008BF39A4204D80AF1010A09F11009D9E700
:1015DC00039B1E68142303FB0B6641463046FFF742
:1015EC0091FF002800F09C80338906930023069914
:1015FC009AB2914202D80BF1010BDFE774680993A0
:10160C000C2202FB0344214642463046FFF792FF70
:10161C002279099B00287BD0049B03B11C609106A6
:10162C001ED4464809E01A79920642BFD8783F1872
:10163C00BFB20C339C42F6D84148059B074493B18A
:10164C0021463046FFF748FF2388B8F802100246BF
:10165C00029801F01DFD60BB7E200BB0BDE8F08F41
:10166C000027384BE6E7002D35D021463046FFF7F2
:10167C0033FF2388B8F802100246029801F006FDE9
:10168C000028E9D0DFF8C49028462379DB0615D56D
:10169C0021463046FFF720FF98F80060B8F802109A
:1016AC001495034622463046CC460BB0BDE8F04FAD
:1016BC0060473846DFF898902F46E6E7019AA37802
:1016CC005AB9E278A3F14101012908D8013AD2B202
:1016DC00394603F005FD0020BFE7019AF2E7433BD2
:1016EC00012B05D8023A92B2394603F013FDF2E70A
:1016FC00059B2BB9019B1BB1E37801998B4218D840
:10170C00394617B902F0D2FAE5E702F073FAE2E7CC
:10171C0012F0300F02BFE0783F18BFB2013366E71A
:10172C0070890744BFB266E7039BD8880744BFB2F1
:10173C0049E7892091E700BFFD200020C43000203C
:10174C00642F0020081C0300A4300020BB300000D4
:10175C00BF30000010B586B000248DF81030BDF8F5
:10176C0020308DF80C00ADF80E10ADF81220ADF84D
:10177C00143000942346224602A903A80294FFF7D2
:10178C00EFFE029806B010BDF0B5077900244FF0BB
:10179C00140CE3B29F4201D800230DE00CFB04F5BE
:1017AC0006687319755B8D420DD12AB1802A05D15B
:1017BC0093F90C50002D06DA1846F0BD402A02D1E0
:1017CC001D7B6D06F8D40134E3E7000030B50B4BFC
:1017DC000B4A1C780023D9B2A14201D3002030BDA2
:1017EC001946013302EB031515F8105C8542F2D152
:1017FC0002EB0112507B00F00100F0E7FD2000200D
:10180C00A430002070B50A4B0A491D780023DAB2C7
:10181C00AA4202D3FF22104670BD1C016618645CFC
:10182C00844202D1747BE407F5D40133EFE700BFA7
:10183C00FD200020A430002038B50C461546FFF7DB
:10184C00E1FFFF2809D0064B03EB00102A46214686
:10185C008068BDE83840FFF797BF002038BD00BF57
:10186C00A430002008B50022FFF7E6FF003018BFB7
:10187C00012008BD08B54022FFF7DEFF003018BF7D
:10188C00012008BD08B58022FFF7D6FF003018BF35
:10189C00012008BD30B5094B094C19780023DAB288
:1018AC008A4201D3FF2206E0013304EB031515F83D
:1018BC00105C8542F3D1104630BD00BFFD200020E6
:1018CC00A430002038B50C461546FFF7E3FF054B56
:1018DC0003EB00102A4621468068BDE83840FFF72C
:1018EC0053BF00BFA43000202DE9F04707468846BF
:1018FC009146FFF7A1FFD8B10E4BDFF83CA01E7844
:10190C0000252C46EBB2B34202D32046BDE8F0874B
:10191C0001350AEB051313F8100C8742F5D04A4633
:10192C004146FFF7CFFF002818BF0134E4B2E9E7C6
:10193C00FF24EAE7FD200020A43000204022FFF71E
:10194C00D3BF0000014B0001185C7047A43000208D
:10195C0070B50D46FFF756FFFF2818D00E4B03EB62
:10196C00001082689AB10023117918461426DCB253
:10197C00A14200D870BD146806FB0344247B45B11A
:10198C0014F0400F1CBF0130C0B20133EFE7002050
:10199C00F0E714F0800FF5E7A43000202DE9F041BA
:1019AC000F469046FFF72EFFFF280BD0104B03EB92
:1019BC0000100023856829791C464FF0140CDAB20C
:1019CC00914202D80020BDE8F08128680CFB03008E
:1019DC00067BB8F1000F08D016F0400F03D0BC42C4
:1019EC00F1D00134E4B20133E9E716F0800FF5E7EA
:1019FC00A4300020F0B58FB0054618F0AEFD03AC56
:101A0C0001237F2221210746204605F0EDFA2023F1
:101A1C0000934FF47C4223460021012000F00AFD84
:101A2C00482629237F222221204605F0DDFA234671
:101A3C004FF6E07200210096012000F0FBFC2923F8
:101A4C007F222321204605F0CFFA23464FF6E17280
:101A5C0000210096012000F0EDFC012002F02CFA90
:101A6C00012D03D0FF2D69D1874267D101237F223D
:101A7C0024212046102605F0B7FA23460022062121
:101A8C000096012000F0D6FC01237F222521204660
:101A9C0005F0AAFA3023009344F2030223460621F0
:101AAC00012000F0C7FC202501237F22262120469F
:101ABC0005F09AFA2346002208210095012000F037
:101ACC00B9FC01237F222721204605F08DFA2346FD
:101ADC004FF4804208210095012000F0ABFC02235A
:101AEC007F222821204605F07FFA212300933246DD
:101AFC0023464FF48071012000F09CFC01237F22CF
:101B0C002921204605F070FA41F2542300224FF6A9
:101B1C005641CDE90045012000F09CFC01237F22B9
:101B2C002A21204605F060FACDE9004541F2542304
:101B3C0004224FF65641012000F08CFC0FB0F0BD92
:101B4C002DE9F0411C461B799B078CB005460F46CE
:101B5C00164655D50DF1040829220021404602F005
:101B6C00A5F8002D08BF4546002E4CD12388B3F5AF
:101B7C007C4F13D17E4A7F4B7F48A21A92105A4356
:101B8C0092B23146FFF732FC40B92379580605D49E
:101B9C0001232A467F21212005F03CFA22884FF6AA
:101BAC00E0739A4213D1724A724B7348A21A921084
:101BBC005A4392B20021FFF719FC40B92379590618
:101BCC0005D429232A467F21222005F023FA2288D6
:101BDC004FF6E1739A4213D1654A664B6648A21AD6
:101BEC0092105A4392B20021FFF700FC40B92379BE
:101BFC005A0605D429232A467F21232005F00AFA08
:101C0C000CB0BDE8F081012FFAD1062E2DD1218820
:101C1C0091B9574A574B5848A21A92105A4392B24C
:101C2C00FFF7E4FB40B923795B0605D43B462A4613
:101C3C007F21242005F0EEF9228844F203039A4216
:101C4C00DED14B4A4B4B4C48A21A92105A4392B2DB
:101C5C000021FFF7CBFB0028D2D123795F06CFD42C
:101C6C0001232A467F212520C8E7082E2CD1218864
:101C7C0091B93F4A3F4B4048A21A92105A4392B234
:101C8C00FFF7B4FB40B923795E0605D43B462A46E0
:101C9C007F21262005F0BEF92388B3F5804FAFD104
:101CAC00334A344B3448A21A92105A4392B2002150
:101CBC00FFF79CFB0028A3D123795806A0D401235D
:101CCC002A467F21272099E7B6F5807F16D12388F5
:101CDC00102B95D1264A274B2748A21A92105A430B
:101CEC0092B20021FFF782FB002889D12379590693
:101CFC0086D402232A467F2128207FE74FF65643BD
:101D0C009E427FF47DAF2188A9B9194A194B1A4814
:101D1C00A21A92105A4392B2FFF768FB41F2542375
:101D2C00984208D123795A0605D401232A467F21EB
:101D3C00292005F06FF92388042B7FF461AF0C4A3E
:101D4C000C4B0D48A21A92105A4392B20021FFF785
:101D5C004DFB41F2542398427FF452AF23795B063A
:101D6C003FF54EAF01232A467F212A2046E700BFCC
:101D7C00081C0300ABAAAAAACC1B03002DE9F04F48
:101D8C008BB08046039118F0E8FB444B04901B7811
:101D9C0005930024059B9C4235D2B8F1FF0F0BD064
:101DAC004046FFF72FFDFF28044631D03C4B4FF047
:101DBC00000903EB041B1CE0394B049A03EB0413DE
:101DCC001B7B9342F2D00134E4B2E3E71B6814228C
:101DDC0002FB05352B89B3F5967F01D904F08EFEF5
:101DEC004FF0000A2A891FFA8AF39A4213D809F194
:101DFC000109DBF808301A795FFA89F5AA42E5D8AF
:101E0C00B8F1FF0FDFD0039B13B94046FFF7F2FD8B
:101E1C000BB0BDE8F08F0C221FFA8AF353436A68AB
:101E2C00D7183E79F1062FD49BF800108DF81C10B2
:101E3C002988ADF81E1016F0400F0CBF40218021F0
:101E4C008DF82010D35AADF8223039462846FFF7CA
:101E5C0043FB7207ADF82400FB7818D5022BBE6843
:101E6C0000D936680123009300231946324607A88F
:101E7C00FFF776FB039B3BB13B46BDF81E209BF85E
:101E8C0000103046FFF75CFE0AF1010AAAE7022BAC
:101E9C0094BF07F10806BE68E4E700BFFD200020F0
:101EAC00A43000200021FFF769BF10B501210446C2
:101EBC00FFF764FF2046BDE81040FFF767BA10B586
:101ECC00047B14EA010310D0002201238B4203D3BC
:101EDC00036953F8220010BD1C4218BF01324FEAAF
:101EEC00430318BFD2B2DBB2F0E71846F3E7F8B5FC
:101EFC0016469DF8182005461F46FFF79DFC78B145
:101F0C000421FFF7DCFF044650B1284601F0DCFF4A
:101F1C003A4631462846A047BDE8F84001F0C3BF19
:101F2C00F8BD2DE9F74F0C9D9DF834B081468A46DB
:101F3C001F46144612B30DB303B32B7892F80480EA
:101F4C00618813F0080F14BF402280224046FFF72F
:101F5C0073FC98B10821FFF7B2FF064670B14046FA
:101F6C0001F0B2FFCDE9005B3B46224651464846A4
:101F7C00B04703B0BDE8F04F01F095BF03B0BDE82A
:101F8C00F08FF8B516461A460446BDF81870FFF7E0
:101F9C0053FCE0B177B90221FFF791FF0546B0B1D0
:101FAC00204601F091FF31462046A847BDE8F84095
:101FBC0001F079BF1021FFF782FF054638B12046AA
:101FCC0001F082FF3A4631462046A847EEE7F8BDBD
:101FDC0073B516461A460546BDF81840FFF72CFC9B
:101FEC00B8B1C4B92021FFF76AFF044670B1284686
:101FFC0001F06AFF099B00939DF81C209DF820308E
:10200C0031462846A047044601F04DFF204602B059
:10201C0070BD8624FAE70024F8E72DE9F0418668C4
:10202C000446007801F050FF002514273279EBB2FA
:10203C009A4203D8BDE8F04101F035BF7B433268CA
:10204C002078D15A02EB030801F024F80121404614
:10205C00FFF735FF034608B1207898470135E5E7CF
:10206C0070B5084D084E00242B78E0B2834200D89E
:10207C0070BD06EB0010437BDB0701D5FFF7CDFFEE
:10208C000134F1E7FD200020A43000202DE9F04FB1
:10209C00DDF828C0BDF824E09DF82C804C7D38B3C9
:1020AC005CB3012C18BF04249DF83070DFF87490D9
:1020BC0000252846BFB239F825A092454FEA85067F
:1020CC0010D14E4496F803A01AEA040F0AD0B67841
:1020DC00464507D31AF0100F91F80FB00FD0BBF193
:1020EC00000F0FD10135382DE5D10120BDE8F08F5F
:1020FC00002C14BF04240824D6E70224D4E7BBF137
:10210C00000FEFD187420AD0864508D91E54BCF87F
:10211C00006001300136ACF8006080B2E2E70020CC
:10212C00E4E700BF102003002DE9F04F89B01C46F6
:10213C0093469DF850300193224606460D46FFF714
:10214C007BFBBDF848308DF81460ADF816508DF857
:10215C001840ADF81AB0ADF81C30814618B9012002
:10216C0009B0BDE8F08F05A9FFF7CCF90028F6D02F
:10217C009DF84C3000259BB22E462F462C460293E0
:10218C0036E00C231FFA85F8B9F8002003FB08F899
:10219C00D9F80430B2F57C4F03EB080A1AD333F8A4
:1021AC00080058452ED3029BA3422DD901F0DCFD2B
:1021BC009AF8020001F0C4FD019B43B19AF8043077
:1021CC0013F0010F0CBF0520072001F0B9FD0134FD
:1021DC00A4B219E033F80820ADF81A20514605AA2C
:1021EC0048460393FFF7A6F9039B0028D7D1013586
:1021FC00B9F80820ABB29A42C3D83C44A31B58424E
:10220C005841ADE70137BFB20136B6B2EFE72DE961
:10221C00F04F8FB098469DF8703006930023BDF8B0
:10222C0060908DF82C00ADF82E10ADF83220009394
:10223C0005460E46174608A91A460BA80893199C82
:10224C009DF868B09DF86CA08DF83080ADF8349096
:10225C00FFF786F9089B002B00F09880BAF1000F6D
:10226C0007D19A785A4540F094801A79D10740F1F9
:10227C0093801A79520735D59A68516892680991FA
:10228C000A92987802F0C2FF089B059093F803A07D
:10229C00BAF1020F17D803465246214609A802F09C
:1022AC005AFF059B0790524621460AA802F053FF9D
:1022BC00079B012B01D0013014D14FF0870A5046F7
:1022CC000FB0BDE8F08F059B09985246214602F0ED
:1022DC0042FF0128F1D0059B0A985246214602F094
:1022EC003AFFE8E7069B002B59D1089B0394DB7857
:1022FC00CDF80090CDE901B33A4643463146284625
:10230C0000F011FF82460028D9D1089B0394DB789A
:10231C00CDF80090CDE901B33A4643463146284604
:10232C00FFF756FE82460028C9D101230093069B75
:10233C00224619460BA8FFF713F982460028BED196
:10234C00089B324629462046FFF7FAFB43463A469D
:10235C0031462846CDE901B4CDF800900DF030FCA3
:10236C00089B0394DB78CDF80090CDE901B33A4695
:10237C0043463146284600F0D5FECDF80090434642
:10238C003A4631462846FFF7FCFD98E74FF0860A9F
:10239C0095E74FF08D0A92E74FF0880A8FE74FF0E0
:1023AC00000A8CE72DE9F04786B007460F9D9DF893
:1023BC004060BDF838400094CDE9015688469146FE
:1023CC009A460FF08FFE98B102280ED84FF00003FA
:1023DC00049308BF0123CDE90263CDE900455346C0
:1023EC004A4641463846FFF712FF06B0BDE8F08773
:1023FC000120FAE730B587B000240125CDE903545C
:10240C009DF82C5002950A9DCDE90045FFF7FFFE83
:10241C0007B030BD30B587B000240125CDE9035499
:10242C009DF828500094CDE901358023FFF7EFFE8D
:10243C0007B030BD30B587B000240125CDE9035479
:10244C009DF828500094CDE901354023FFF7DFFEBD
:10245C0007B030BD10B586B04FF0000C0124CDE9AB
:10246C00034C9DF824400294089CCDE90034402391
:10247C00FFF7CDFE06B010BD10B586B04FF0010CC5
:10248C000024CDE9034C9DF828400294099C01944A
:10249C00BDF820400094FFF7BAFE06B010BD30B571
:1024AC0087B000258DF81030BDF828308DF80C0061
:1024BC00ADF80E10ADF81220ADF814300095BDF843
:1024CC0030300B9A0D9C029502A903A8FFF748F82F
:1024DC0018B914B1029B9B78237007B030BD1FB59F
:1024EC00089C03949DF81C400294069C01940024C3
:1024FC000094FFF7D4FF04B010BD30B585B00024B4
:10250C009DF820500394CDE9013500944023FFF74A
:10251C00C6FF05B030BD1FB5002403949DF81C40C8
:10252C000294069CCDE900344023FFF7B8FF04B0B9
:10253C0010BD0000F0B597B01646BDF87470042FAE
:10254C0048D90DF1130403944124029405ADBDF850
:10255C00704000940195FFF7A2FF0446A0BB9DF8C4
:10256C001300A0F14103012B21D8284601F07AFC7D
:10257C000130C4B2E31CBB422CDA304601F0F4FB50
:10258C00154E002001F0DCFB9DF8130001F0D8FB88
:10259C0033881A19512A1DDC1048A4B2224618445B
:1025AC00294601F027FB30880444348012E0A0F166
:1025BC004303012B04D8284601F059FC0230D8E71C
:1025CC00FEF702FF0446D5E7304601F0CDFB20466E
:1025DC0001F0B6FB17B0F0BD583100206831002077
:1025EC00C37B10B504460BB1832010BDC37C1BB15B
:1025FC00F02B08D08120F8E702F06AFF30B9E37BBA
:10260C00002BF1D1F6E70FF0ADF9F7E70020ECE77E
:10261C00C37B10B504460BB1832010BDC37C1BB12A
:10262C00012B10D08120F8E7017D82898B1C9A4206
:10263C000CD3806801F0FDFB09F0C8FF40B9E37BC7
:10264C00002BE9D1EEE709F0D9FFF7E78020E4E7AA
:10265C000020E2E7F8B5C37B04460BB18320F8BD3C
:10266C00C37C052B29D8DFE803F0032A35414C4FF6
:10267C00057D8289AB1C9A4201D28020EFE7ADB276
:10268C002946806801F0D5FB0646A068A78902356B
:10269C00284401F0E7FB284401308742EDD329465A
:1026AC00A289A06801F0CCFB0146304609F0F8FC89
:1026BC00002848D1E37B002BD0D18120CFE7017DCE
:1026CC0082898B1C9A42D8D3806801F0B2FB09F046
:1026DC0007FDEDE7037D81895A1C9142CDD38268B9
:1026EC00591C1144D05C09F02BFDE1E7017D828976
:1026FC008B1C9A42C1D3806801F09BFB09F0A0FDB2
:10270C00D6E709F0F9FDD3E7057D8289AB1C9A4227
:10271C00B3D3ADB22946806801F08BFB0646A068A6
:10272C00A7890235284401F09DFB284401308742DB
:10273C00A3D32946A289A06801F082FB014630464A
:10274C0009F022FEB4E7002089E7C37B2DE9F743AB
:10275C000446002B40F0A880C37C062B00F2A68018
:10276C00DFE803F0044A5A6A75859600057D828974
:10277C00AB1C9A4203D2802003B0BDE8F083ADB20B
:10278C002946806801F055FBA289E91C8A4206465D
:10279C0005F10203EFD3881C8242ECD3A068C75C1E
:1027AC0001F047FB8046A068B4F80C90053528442E
:1027BC0001F058FB284401308145DCD32946A2891D
:1027CC00A06801F03DFB8146A068284401F04AFB5B
:1027DC0001300544A06810FA85F500954B46424639
:1027EC00394630460EF04AF9002861D1E37B002BC4
:1027FC0014BF83208120BFE7057D8289EB1C9A42A0
:10280C00B9D3ADB22946806801F013FB0235A36839
:10281C00595D0EF0B5F9E7E7057D8289EB1C9A420C
:10282C00A9D3ADB22946806801F003FB0235A36839
:10283C00595D0DF099FDD7E7017D82898B1C9A4279
:10284C0099D3806801F0F5FA0DF0FCFDCCE7057D1D
:10285C008289EB1C9A428ED3ADB22946806801F076
:10286C00E8FA0235A368595D0DF054FFBCE7057D0D
:10287C008289EB1C9A42FFF47EAFADB22946806888
:10288C0001F0D7FA0235A368595D0DF0ABFFABE749
:10289C00017D82898B1C9A42FFF46DAF806801F038
:1028AC00C8FA0DF037FE9FE7832065E7812063E7C8
:1028BC00002061E7F8B5C37B04460BB18320F8BD5B
:1028CC00C37C022B21D004D8ABB1012B1AD08120B0
:1028DC00F5E7412B1CD0422B1DD0402BF7D1037DAB
:1028EC0081899A1C91422DD38268591CD05C515C11
:1028FC0010F042FE01E00BF091F928BBE37B002BBA
:10290C00E5D0DBE70BF0A0F9F7E70BF0B3F9F4E750
:10291C0010F096FEF1E7037D8289591D8A4211D38E
:10292C009DB28068691CC65C01F083FAA2890746D7
:10293C00E91CA06801F07DFA39460246304610F0D9
:10294C00DBFEDAE78020BAE70020B8E7C37BF7B5F7
:10295C000446002B40F0D180C37C072B00F2CF80C3
:10296C00DFE813F008003700590085009A00A90031
:10297C00B500C800037D8289591C8A42C0F0C18011
:10298C009DB2691C881C8242C0F0BB80A068C75CE9
:10299C0001F04FFAEB1CA6895A1C964222BFA26882
:1029AC00D25C2B1D014603F1010038BFFF22864289
:1029BC002ABFA068FF23C35C38460AF08FFC0028AE
:1029CC0040F0A180E37B002B14BF8320812003B057
:1029DC00F0BD067D8589731C9D42C0F09280B7B214
:1029EC00BA1C954207F10103C0F08B808068C15C72
:1029FC0013460132954224BFC25CFB1C03F1010754
:102A0C0038BFFF22BD4228BFC35C805D38BFFF23A7
:102A1C000AF07CFCD3E7037D8289591C8A4270D36F
:102A2C009DB2A91C8A4205F101076AD3881C824217
:102A3C0067D3A068C65CC75D01F0FBF9291DB4F82B
:102A4C000CC04B1C9C4522BFA3685B5C691D0246F5
:102A5C0001F1010038BFFF2384452ABFA068FF2184
:102A6C00415C0091304639460AF068FCA7E7027DCC
:102A7C008189501C814293B222BFA0680133805CD3
:102A8C0003F1010238BFFF2091422ABFA268FF2147
:102A9C00D15C0AF06FFC92E7017D8289CB1C9A42D3
:102AAC002FD38068455C013101F0C3F901462846FB
:102ABC000AF020FC83E7037D81899A1C914220D384
:102ACC008268591CD05C515C0AF02CFC77E7037DC2
:102ADC008289191D8A4214D3806899B2C55C4B1C3B
:102AEC000231C65C01F0A5F93146024628460AF0CF
:102AFC0033FC64E70AF046FC61E7832067E781203A
:102B0C0065E7802063E7002061E72DE9F04FC37B88
:102B1C008FB004461BB183200FB0BDE8F08FC37C8F
:102B2C000B2B4DD8DFE813F00C00550030014C0096
:102B3C004C004C0057014C004C004C00C301D70119
:102B4C00037D8289581C824224BFA06810F8038040
:102B5C0099B234BF4FF0FF08013118F0070509D1C5
:102B6C000F1DBA422FD3A06801F05DF9B9B2064629
:102B7C00FF2711E0022D25D101F108039A42C0F084
:102B8C00DF81A5680D4499B24B1C9A421BD3A268F5
:102B9C004FF0FF36575C99B2A2890B1D9A4215D3A0
:102BAC00A06801F040F900903B462A463146404669
:102BBC0008F08AFA002840F0C181E37B002BAAD1EF
:102BCC008120A9E700254FF0FF36D1E74FF0FF3009
:102BDC00E9E7037D82899DB203339A4218D32946D3
:102BEC00806801F023F90335064616F0070712D169
:102BFC00A28905F104084245C0F0AD802946A068C1
:102C0C0001F011F91FFA88F583464FF0FF0A18E01E
:102C1C004FF0FF36E9E7022F40F09C80A28905F1C6
:102C2C0008039A42C0F08E81A7682F449DB26B1C9A
:102C3C009A42C0F09080A2684FF0FF3B12F805A0BA
:102C4C009DB216F0100340F0898016F0600903D095
:102C5C00B9F1600F40F07B81A28905F108039A421B
:102C6C00C0F07281A168294409919DB2B9F1000F9D
:102C7C0003D0B9F1600F40F06B81AB1C9A42C0F0ED
:102C8C006C812946A0680A9301F0D3F80A9B804610
:102C9C009DB2B9F1200F02D0B9F1400F62D1A289D7
:102CAC00AB1C9A420A935DD32946A06801F0C1F887
:102CBC000A9B81469DB206F01803082B55D1A289B8
:102CCC006B1C9A4251D3A268525D0A929DB2710458
:102CDC004ED5A2892B1D9A424AD32946A0680C9343
:102CEC0001F0A1F80C9B0B909DB216F4004344D05C
:102CFC00A28905F110039A423ED3A2682A440C9291
:102D0C009DB2F2033BD5A289AB1C9A4237D329461C
:102D1C00A0680D9301F08DF80D9B9DB2B30331D5D6
:102D2C00A2896B1C9A422DD3A3685B5DCDF80480FD
:102D3C00CDE906030C9B05930B9B04930A9BCDE9F1
:102D4C000293099B00933A4653465946304608F085
:102D5C00BDF92FE700274FF0FF3B56E700234FF656
:102D6C00FF7809934FF6FF79A5E7FF230A93AEE7A7
:102D7C004FF0FF330B93B8E700230C93C1E74FF6EA
:102D8C00FF70CBE7FF23D1E7017D8289481C82428B
:102D9C0024BFA068455C8BB234BFFF250133A90763
:102DAC0014D59E1CB24211D31946A06801F041F80B
:102DBC00B3B20146EA060CD5A0895A1C904208D33E
:102DCC00A268D25C284608F03BF9F3E64FF6FF7197
:102DDC00F0E7FF22F6E7037D82898068591C8A425E
:102DEC009DB228BF013505F102062CBF10F80380F7
:102DFC004FF0FF08B24233D3294601F01AF8B5B2AE
:102E0C008146A289A0686B1C9A422ABF10F805A0C3
:102E1C004FF0FF0A9DB218F0070624D105F1040B00
:102E2C005A4530D3294600F0FEFF1FFA8BF50746B2
:102E3C004FF0FF0BA289A0680A92691C8A4223BF3B
:102E4C00435D09938DB2FF23284438BF099301F0E9
:102E5C0009F80A9A28440130824217D280205BE696
:102E6C004FF6FF79CDE7022E0CD105F108039A42FB
:102E7C0071D346199DB210F805B00135ADB24FF0C3
:102E8C00FF37D7E700264FF0FF37D1E7A289A068BC
:102E9C00294600F0D5FF099B0390CDE901B30096BC
:102EAC003B4652464946404608F09AF982E6007D78
:102EBC00A289031D9A42D1D386B2A568F31CB21C19
:102ECC00711C0436EB5CAA5C695C285C354400958B
:102EDC0008F034FA6EE6037D8289591C8A42BDD310
:102EEC008068C65C9FB216F01F0507F1010104D182
:102EFC0000F099FF791D002206E0022D1BD142182B
:102F0C0007F109014FF0FF3006F00703022B01BF58
:102F1C00A3684D1C5B5CA9B206F0180518BFFF2313
:102F2C00082D0ABFA568FF256D5C0095014630464B
:102F3C0008F0F2FA3EE64FF0FF30DCE70020EBE55C
:102F4C00002521E6002772E6002309938EE60993FB
:102F5C004FF6FF789DE600268DE7B9F1200F4FF66E
:102F6C00FF787FF499AEFDE6C37B10B5044673B1D0
:102F7C00036941F2542223F47F03934209D1037D68
:102F8C00806818440FF0D6F870B9E37B23B9812020
:102F9C0003E0064A934201D0832010BD037D806874
:102FAC0018440FF0F7F8EFE70020F6E7541200058D
:102FBC0038B5C37B002B437D14BF8325C325012B60
:102FCC00044619D1036859885879FEF75BFC98B10F
:102FDC0023685B88192B03D0212B08D0032B02D13B
:102FEC00E37B13B18325284638BD8125FBE72046BA
:102FFC00BDE83840FFF789BD637D002BF3D1236812
:10300C0059885879FEF736FC0028ECD023685B8889
:10301C00062B35D012D8032B28D006D8002BE2D1A2
:10302C002046BDE83840FFF7DBBA042B23D0052B34
:10303C00D9D12046BDE83840FFF787BBB3F5807F78
:10304C00CED006D8082BCED12046BDE83840FFF7AD
:10305C007DBC4FF655429342C2D04FF65642934236
:10306C00C1D12046BDE83840FFF77EBF2046BDE801
:10307C003840FFF7CDBA2046BDE83840FFF7EABA32
:10308C002046BDE83840FFF715BC7047012070475B
:10309C0001207047704700207047002070470020C7
:1030AC0070470020704700207047002070470120B7
:1030BC0070470120704700207047002070470020A7
:1030CC007047002070470020704700207047002098
:1030DC007047B520704770477047704770470020A5
:1030EC007047704700207047704700207047000001
:1030FC00034B1B681878012808BF0220704700BFDB
:10310C00982100207047002070470000034A0346B6
:10311C000120C3E9032000221A7070470100FEFF52
:10312C000020704770470020704700207047002037
:10313C007047002070470020704700207047002027
:10314C0070477047B52070470020704700207047CB
:10315C007047704770477047704770477047002042
:10316C007047704702292DE9F84F0546894604D867
:10317C004FF0000B5846BDE8F88F1BB10429F7D966
:10318C0042F004020C9C2A70002B50D06B701B0A6E
:10319C00AB70032701F098FD07F1020BE8550137DE
:1031AC009DF82830EB55464E4FF000085FFA88F337
:1031BC000B9AD05C0028DDD0732861D8A0F14C03A9
:1031CC00DBB2162B04F10407D4F800A039D826FA88
:1031DC0003F3DB4313F001033BD162684C2804F189
:1031EC00080794B225D14FF6FF7322469C4214BFB8
:1031FC00022300230BEB040018448145B8DBDE46A8
:10320C001846002851D19B441FFA8BFB5CB1BAF1D4
:10321C00000FADD005EB0B002246514600F0EAFC46
:10322C00A3441FFA8BFB08F101083C46BEE70127BB
:10323C00B0E753281BD1D2B2B2F1FF0318BF012360
:10324C00D8E76C2805D1504600F011FE023084B24C
:10325C000CE0732804D1504600F004FE0130F6E770
:10326C00A0F13004E3B2092B03D8A4B200231A4610
:10327C00C0E7A0F14103062B3FF67AAF3738E6E7FB
:10328C00752808D076280CD078280CD077287FF4B5
:10329C006FAF042300E00123271D22680024A246FF
:1032AC00A8E70223F8E70323F6E70EF1010C013837
:1032BC0005F80E20C0B2120A1FFA8CFEA1E700BF5F
:1032CC008100400010B5044C206004480180044982
:1032DC000A60044A136010BD082100200C21002054
:1032EC00042100200021002070B586B00AAC0D46E8
:1032FC0054F8046B0B49059409880093CDE90164DB
:10330C001346024608480068FFF72CFF074B1B6862
:10331C001880074B1B684FF48A525D80DA8006B028
:10332C0070BD00BF0C2100200821002004210020CA
:10333C000021002008B430B586B009AB0C4653F818
:10334C00045B0D49059309880092CDE901530246AF
:10335C000A4800230068FFF705FF094B1B6818801B
:10336C00084B1B684FF48A525C80DA8006B0BDE8CB
:10337C00304001B0704700BF0C2100200821002014
:10338C000421002000210020044B054A1968126812
:10339C000988034603480068FDF79DBA0421002004
:1033AC0008210020002100200020FFF7EDBF0000C5
:1033BC001FB5074C246824880091CDE901230549E9
:1033CC00054B09681B682246FDF7C8F904B010BD0F
:1033DC000421002000210020082100200023FFF7F9
:1033EC00E7BF0000044B054A1B6812681988044BA0
:1033FC001868FDF7E3B900BF042100200821002064
:10340C000021002007B5074B1B681B880192064A58
:10341C0012680092054A1268FDF731FA03B05DF8A4
:10342C0004FB00BF04210020082100200021002003
:10343C000022FFF7E7BF00001FB5074C2468248863
:10344C000091CDE901230549054B09681B6822460B
:10345C00FDF700FA04B010BD04210020002100206B
:10346C00082100200023FFF7E7BF0000014B18687C
:10347C00704700BF00210020F8B50D468C680A6823
:10348C0026490646202003F038FF6B687BB9244997
:10349C00202003F032FF20200DF0FEFB21492020DC
:1034AC0003F040FF2020BDE8F8400DF0F5BB002EE6
:1034BC00F1D01D4D1D4E1E4F013C14F8013F23B998
:1034CC001849202003F02EFFE5E7752B16D0762B3C
:1034DC0016D0772B16D0732B16D0722B16D0712BCF
:1034EC0016D0622B16D06E2B16D01249124A2A2BEC
:1034FC0018BF1146202003F000FFDEE72946F9E74C
:10350C003146F7E73946F5E70C49F3E70C49F1E7A3
:10351C000C49EFE70C49EDE70C49EBE7924003004F
:10352C001D220300CE210300DB210300CF21030069
:10353C00E62103002422030021220300F2210300D0
:10354C00FC21030007220300122203001C220300AB
:10355C00F0B5214A92F87B30184452FA80F01F4B98
:10356C0090F865C090F866501F78A5EB0C05002606
:10357C00EDB23046F4B2A54225D90CEB0603134448
:10358C005B7811B10CB92D2B17D0782B1FD0582B81
:10359C0005D108B137240AE0013C012C14D9602B69
:1035AC0017D8402BF6D83A2B34BF302400241B1BE1
:1035BC00DBB29F4203D900FB07300136DAE7052363
:1035CC0082F879300020F0BD10270020F5E70028A4
:1035DC00E2D05724EBE700BF0E2100205C1B00203B
:1035EC00094A0023FF21137082F8783082F8653085
:1035FC0082F8773082F8793082F87A1082F87B3052
:10360C00024A1360704700BF0E21002024310020B5
:10361C0038B5014605460120FFF72EFFD5E90143D9
:10362C006CB91C46084D236863B12946202003F071
:10363C0064FE21460020FFF71FFF0C34F3E71B78D4
:10364C006E2BEFD038BD00BF8C21030008B50449A8
:10365C00202003F052FE2020BDE808400DF01CBBDA
:10366C008F21030038B5FFF7F1FF064D00246119D7
:10367C000C34631953F80C3C03B938BD0020FFF728
:10368C00FBFEF4E7782103002DE9F84F1F4B204D8A
:10369C0053F820201F49202003F02FFE2B681BB964
:1036AC00BDE8F84FFFF7DEBF1B4FDFF874A0FFF744
:1036BC00CDFF0026B94697F87B30F4B2013B9C4213
:1036CC0004DB2868BDE8F84FFFF7A2BF47FA86F382
:1036DC004C4493F865800023C84494F8662094F811
:1036EC006510521A03F1010BD2B2DBB2934205D32F
:1036FC000A49202003F001FE0136DCE74344514621
:10370C005A78202003F0F9FD5B46E6E7601B0020A9
:10371C0024310020842103000E2100208D21030080
:10372C00892103002DE9F74F824C94F87730002B58
:10373C0000F0A380804B1B7813F0010F04F10107FC
:10374C001FD000257D4E14E06319202093F86620CD
:10375C0093F86530D21A44FA85F3D2B293F8651017
:10376C0039440DF094FA3146202003F0C6FD0135A2
:10377C00EDB294F87730AB42E6D87149202003F0D3
:10378C00BCFD94F877300193DFF8C0E16D4B002657
:10379C0071461EF8012B91F801C04FF00008ACEBFC
:1037AC00020C07EB020A5FFA8CFC454618680028ED
:1037BC0053D00138D14619E02AB9002D4BD04FF027
:1037CC0001080C33F2E719F8011BA1F1410BBBF115
:1037DC00190F98BF2031A2F1410B98BFC9B2BBF1B0
:1037EC00190F9CBF2032D2B28A42EAD1A9EB0A014E
:1037FC00614510F8012FDFD1002ADED11D46524B56
:10380C001D6094F87B30013384F87B30D5E90123BB
:10381C000136F6B2002A36D01B786E2B32D03F2BF5
:10382C0024D04FF000094F464FF0070A4FF0040B1D
:10383C005FFA89F0811994F877C0AA68C9B28C45EF
:10384C00D35D28D893B117447B782A2B1CBF032354
:10385C0084F879300AE01D46B3E7B8F1000F01D1C6
:10386C00002DCCD1022384F87930002594F879000E
:10387C0000285CD1686800F02FF903B0BDE8F04F68
:10388C00FFF7AEBE1346019AB24281D8032284F8E8
:10389C0079201D46EAE7732B08D8712B0AD2002B2E
:1038AC0043D0622B30D084F879A016E0A3F17502D6
:1038BC00022AF8D8752B1ED0762B1FD0732B20D054
:1038CC00722B47F6FF7818BF4FF0FF380121FFF736
:1038DC003FFE404501D984F879B0AB683B4409F10F
:1038EC0001095B782A2B94F879301CBF0137FFB2A1
:1038FC00002B9DD0BAE74FF0FF08E7E74FF6FF78B3
:10390C00E4E74FF07F08E1E794F87B30184454FA71
:10391C0080F090F8653023445B78222BDDD07B2B34
:10392C00DBD0052384F87930D7E70323FAE7FFF7D8
:10393C00ABFEA2E70E2100208A2100208D2103007E
:10394C00CC210300782103002431002073210020B6
:10395C002DE9F3415E4C5F4F06460D464FF00008D3
:10396C0066B90DF1070128460DF08CF978B12628BF
:10397C0000F0A980012384F879304BE0002D00F091
:10398C00A28016F8013B8DF80730013DEDB23A7874
:10399C009DF807303B700D2A01D10A2BE0D00D2B7E
:1039AC000CD0A3F10A025142514122788846042AD4
:1039BC00D6D8DFE802F0051D263C31000121F4E7E2
:1039CC0021B1FFF7AFFE4FF00108C9E7202B63D000
:1039DC00222B07D10223237094F87820642A5DD11E
:1039EC000623C8E77B2B01D10323F4E70123F2E77D
:1039FC0009B9202BF0D194F87730112B3FD1032348
:103A0C00B9E7222BF7D00029E6D0052384F87930CA
:103A1C004FF0010804232370B8F1000FA0D094F8E4
:103A2C00790008B1FFF730FEFFF7DAFD98E77D2B40
:103A3C0094F87A0003D1FF28DDD005239BE7602B97
:103A4C0013D8402B13D8392B8CBF002230229A1A52
:103A5C00D2B20F2A10D8FF280BD002EB0012FF2392
:103A6C008DF8072084F87A30B6E75722EFE7372233
:103A7C00EDE784F87A2073E7202BDED170E7013371
:103A8C00DBB284F87730234494F8782083F86520EF
:103A9C0000232370002994D1884661E72378012BF9
:103AAC0009D19DF80730A3F1410119299CBF20339E
:103ABC00DBB28DF80730A3189DF80710597001324E
:103ACC0084F878204CE7404602B0BDE8F08100BF96
:103ADC000E2100208B21002010B5054B04461878D0
:103AEC0000F0DAF9A047BDE8104000F0DCB900BFE7
:103AFC009C21002049BA89B24840C0F303114140CF
:103B0C00080380B24840C3B280EA431070470000FB
:103B1C00014B1878704700BF8C210020014B1870A6
:103B2C00704700BF8C21002018F05EBA38B5A0F1A8
:103B3C00430305460A2B31D8DFE803F0060A0A12C4
:103B4C001230303030301100BDE8384016F076B904
:103B5C0016F08AF920B116F071F90028FBD138BDA6
:103B6C00114C20780028FAD10123443D23700DF02C
:103B7C00E9FC032D0DD8DFE805F00606090240F636
:103B8C00010028F051FE00232370E8E740F6020004
:103B9C00F7E77521054802F001FAF4E7872103489D
:103BAC00BDE8384002F0FAB98D21002096220300BE
:103BBC007047704770477047704770477047704741
:103BCC0070477047704700207047704770477047C8
:103BDC0070477047704770470020704770477047B8
:103BEC0070470020704770477047704770477047A8
:103BFC00704770478842F0B54FEA92031AD89BB2CF
:103C0C009E00871904460D4604370434BC4205F166
:103C1C0004053AD1C3EB8333314402EB8303013EF9
:103C2C00304411FA83F3994220D011F8012B00F89B
:103C3C00012FF8E7541E20449BB22144A0EB8306CD
:103C4C0004460D46043E043CB442A5F104050ED1D5
:103C5C006FF003045C43C3EB833302EB8303214417
:103C6C009BB201342044CB1A994209D1F0BD2F7973
:103C7C002771EF78E770AF78A7706F786770E2E71D
:103C8C0011F8012900F8012DEEE715F804CC04F821
:103C9C0004CC15F803CC04F803CC15F802CC04F8CA
:103CAC0002CC15F801CC04F801CCAEE702449042EA
:103CBC0000D1704700F8011BF9E710B50138013944
:103CCC000AB9104606E010F8014F11F8013F9C426A
:103CDC0001D0E01A10BD013A92B2F1E710B50138EB
:103CEC0001390AB9104607E010F8013F11F8014FED
:103CFC00A34202D01A1B50B210BD013A92B2F0E7A7
:103D0C000A4B10B500241C70FDF7ECF8084B21464B
:103D1C00188052220748FFF7C9FF074B07481C8041
:103D2C0021460C22BDE81040FFF7C0BFB421002093
:103D3C006631002068310020583100205A310020B3
:103D4C0007490B88512B9FBF064AD05401339BB2B5
:103D5C009DBF0B8003F1FF3398180020704700BF04
:103D6C00583100206831002038B50546C0B2FFF745
:103D7C00E7FF0446280AFFF7E3FF14B1002808BF49
:103D8C000024204638BDF8B50546C0B2FFF7D8FF71
:103D9C000446C5F30720FFF7D3FF0746C5F30740DA
:103DAC00FFF7CEFF0646280EFFF7CAFF24B12FB14E
:103DBC0036B1002808BF00242046F8BD3C46FBE77E
:103DCC003446F9E770B50A4D2B885A18512A0C461F
:103DDC000CDC084E0A460146F018FFF70BFF28884A
:103DEC00204480B22880001B304470BD0020FCE7CA
:103DFC0058310020683100200178FF2908BF0021CC
:103E0C000131FFF7DFBF194491420ADC0144002065
:103E1C0003B9704711F8012D013B02EB0020DBB216
:103E2C00F6E7002070470423FFF7EDBF0323FFF7ED
:103E3C00EABF08B50223FFF7E6FF80B208BD000019
:103E4C008A4203460AD95B5CFF2B08BF00230B4454
:103E5C00084403499342A8BF08467047004870477E
:103E6C00962100200078FF2808BF0020704708B575
:103E7C0002220021FFF7DDFF4FF6FF73984208BFC7
:103E8C00002008BD024B034A1A600020704700BF97
:103E9C0098210020D81B0300002814BF702000209C
:103EAC00704700207047002070477047014B18780E
:103EBC00704700BFA430002008B5FDF7A3FCFF2815
:103ECC000CBFFF20002008BD08B5FFF7F5FFFF2849
:103EDC000CBFA320002008BD002303707047FCF723
:103EEC00D6BA2DE9F84380460F461646994600F09F
:103EFC0045F828B13E443D46EC1BB542A4B201D175
:103F0C00BDE8F88315F8012B4946404604F00F0430
:103F1C0000F06EF8062CEFD1404600F043F8EBE7CA
:103F2C0030B4044D044C002B14BF2B46234630BC3C
:103F3C00FFF7D7BF102303009742030000B50246DA
:103F4C000C49C3790888117889B00691517805918C
:103F5C0091780491D1780391117902915179019161
:103F6C009279009204493E2200F042F809B05DF8C3
:103F7C0004FB00BF9E210020142303004FF6FF73A7
:103F8C00984208D0030A08D1054B1B78034214BF92
:103F9C00012000207047012070470020704700BFAF
:103FAC00341C002008B5FFF7E9FF20B12020BDE844
:103FBC0008400CF071BE08BD0EB417B505AA044636
:103FCC0052F8041B0192FFF7D9FF40B1202003F0F7
:103FDC00BCF90549202003F090F9044B1C8003B078
:103FEC00BDE8104003B07047CC2103009E21002097
:103FFC000EB417B505AA044652F8041B0192FFF73C
:10400C00BDFF20B1202003F0A0F9034B1C8003B0AE
:10401C00BDE8104003B070479E21002013B5036823
:10402C000446587900F03CFD236880B95A88032A6D
:10403C000DD0E17C5B790120CDE900210E490F4ABE
:10404C00FFF7BAFF0121204600F0FFFE08E05B8875
:10405C00192B08D02046FEF7ABFF01460028F2D101
:10406C00012002B010BD637D012BF3D120460AF074
:10407C00CDFC0028EED0F3E7312303002923030005
:10408C002DE9F04F8BB0C27C0592427D03688668A7
:10409C00B0F80CB090F814905F88002A14BF8022FE
:1040AC00402205465879069200F0FAFC90B9059B1F
:1040BC00052B04D8059A2D23D340DB070AD4032FF4
:1040CC0008D0AE490120FFF777FF0121284600F008
:1040DC00BCFE61E1EB7B1BB12A8A002A00F0458211
:1040EC00A74A00211180697D0029904614BF002049
:1040FC0008200BB140F00400FFF722FEEB7B13B15C
:10410C00288AFFF731FEA87CFFF71AFE059B1FFAE1
:10411C0089F4162B00F22382DFE813F01700460116
:10412C00690056007A0169003801830142018C0153
:10413C0095019E010101B201210221022102C80157
:10414C00F101C80109020101B2010120FFF7F8FDDC
:10415C00DFF834A2631C5B4502DB00F029FE1BE197
:10416C005A4621463046FFF764FE814657B901286E
:10417C0008D1DAF8003018684A463B46394640798F
:10418C000EF0A8FF2B685879B8F80030C3F1520331
:10419C009BB201932B8A00934A46069B3946FDF746
:1041AC00FAF870B92B685879B8F80030C3F152039B
:1041BC009BB201932B8A00934A46069B3946FEF725
:1041CC00B9F9A21C94B2C5E70420FFF7B9FD4FF072
:1041DC000009A31C5B4520DBB9F1000FBDD1EB7BC3
:1041EC002C7D002B664B0CBF022204221A8004206B
:1041FC00FFF7A6FD4FF0000AD04604F10309CB45AA
:10420C004DDC059B052B00F0C780B8F1000FA4D145
:10421C00BAF1000F7FD1802158E75A46214630462B
:10422C00FFF707FE3319079093F802A05046FDF7ED
:10423C003DF968B3E01C3044FFF714FE01305FFA1F
:10424C0080F85046FDF732F928B108EB0403ABEBCC
:10425C000303032B21D42B685879CDF808A0E31C59
:10426C00334401932B8A00933946DDE90632FEF77D
:10427C0003F940B109F10109FFF762FD07985FFAF4
:10428C0089F9FFF771FD08F10302224494B2A0E70B
:10429C005046FDF799F88046D3E78020EAE75A4666
:1042AC0021463046FFF7C5FD331908909B780793DC
:1042BC001846FDF7FBF806EB09030993E0B1184625
:1042CC00FFF7D0FD01305FFA80F92B68089A587916
:1042DC00079B0293099B01932B8A00933946069BFB
:1042EC00FEF760F868B90AF101035FFA83FA09F185
:1042FC000302224494B280E70798FDF765F88146E3
:10430C00E3E708F101035FFA83F8FFF719FD08985A
:10431C00FFF72AFDEBE74046FFF712FD1DE7059B73
:10432C000C2B14BF16200D20FFF70AFD214630463A
:10433C005A46FFF77EFD059B4E44152B8246B478FA
:10434C0002D1132C28BF13240020B8F80060FFF70B
:10435C00F7FC2B685879059BA3F1150CDCF10003D5
:10436C0043EB0C03CDE901432B8A00935246069B89
:10437C003946FDF7D9FE034B9855EEE65B23030057
:10438C005831002068310020E431002028460BF021
:10439C007FFD002800F0E38001200BB0BDE8F08F1A
:1043AC0028460BF045FBF4E70A2F06EB090824D14D
:1043BC00DFF8C0A19AF80030FBB1EB7BEBB9ABEBAB
:1043CC000909B9F1080F18D15A4621463046FFF7B2
:1043DC0030FD90B998F80290B9F1000F0DD198F812
:1043EC000330E22B09D1211D5A4689B23046FFF722
:1043FC001AFD00F0E0FA8AF80090ABEB040292B2DE
:10440C0041463846FCF7DCFF0028C5D100215DE6AB
:10441C00ABEB040292B206EB09013846FEF79FFEA5
:10442C00F2E7ABEB040292B206EB09013846FEF759
:10443C0034FEE9E7ABEB040292B206EB0901384615
:10444C00FEF77DFEE0E7ABEB040292B206EB09014E
:10445C003846FCF7B7FFD7E70134A4B22B6816F83F
:10446C000980345D5879069B0093424639462346B1
:10447C00FDF73DFD224641463846FEF710FE8BE720
:10448C00059B16F80910A3F11600621C434292B268
:10449C004341ABEB020B0031009332441FFA8BF318
:1044AC0018BF01213846FEF7FCFDADE7059B16F859
:1044BC0009A04E44112B96F801901BD11220FFF746
:1044CC003FFC0020B8F80040294ECDF80480C4F120
:1044DC00510292B2631C00923344CDE902A93A46D0
:1044EC002946FDF7D3FDB8F8003030550133A8F854
:1044FC00003032E61420FFF723FC0120E2E716F827
:10450C0009200134A4B2003206EB0403ABEB040423
:10451C0018BF0122A4B20021C8B2844201F10101EA
:10452C00FAD8298A00943846FEF7BFFD6CE716F8D6
:10453C0009200134A4B2003206EB0403ABEB0404F3
:10454C0018BF0122A4B20021C8B2844201F10101BA
:10455C00FAD8298A00943846FEF7A5FD54E7EB7B80
:10456C00002B0CBF82218421B0E58421AEE500BF75
:10457C0068310020A021002082B2074B42B11A8082
:10458C00000C064B0ABF4FF6CE2218801A807047DB
:10459C004BF6EF62F3E700BF361C0020381C0020FE
:1045AC00094B1888020448BF80F0620042001A8050
:1045BC00064A1388190444BF83F4805383F00B0319
:1045CC005900118058407047361C0020381C0020C0
:1045DC00034B1870034B1970034B00221A70704771
:1045EC00A2210020A1210020A321002010B501242C
:1045FC0004704FF6FB74A1429CBF6FEA43436FEA11
:10460C0053430381426008210348FFF768FC0420F0
:10461C00BDE81040FEF739BDBC31002030B585B087
:10462C000446FFF739FC0C20114B604300241D1885
:10463C001C541048FFF750FC0420FEF789FD6968F4
:10464C0089B12B89039443F38132C3F30E0302F037
:10465C000202ADF806304FF6FF738DF80420ADF86A
:10466C00083001A88847FFF71EFC05B030BD00BF1D
:10467C00A4210020BC31002038B50446436808460C
:10468C000D469847B4F90830002B02DB2B78042B2D
:10469C0007D10023636015F060FFBDE83840FFF7D9
:1046AC00BDBF38BD2DE9F843994605460E469046E8
:1046BC0015F053FF04460C20104F60433B5CDBB9F4
:1046CC004FF6FB724FF6FD73954288BF1D4631467F
:1046DC004B464246284600F043F9064648B924B2F8
:1046EC0004EB44040623089A294607EB8400FFF7E1
:1046FC007DFF3046BDE8F8837026FAE7A421002040
:10470C002DE9F0410746884615F027FF0C230D4E86
:10471C0043430446F25C9AB940231146384623F0D1
:10472C0026FB054648B924B204EB44040123424657
:10473C00394606EB8400FFF759FF2846BDE8F081A7
:10474C007025FAE7A42100200020FFF767BF0000C6
:10475C002DE9F0479CB014461D460F4615F0FDFEA2
:10476C000C237E4A43438146D65CD0189046002EDB
:10477C0000F08B803988002940F0ED8002897B881D
:10478C0042F40040834240F0E680617800297CD1FD
:10479C000FFA89F707EB4707A3F5004308EB8707E8
:1047AC00062B00F2D880DFE813F097009700D600B4
:1047BC00D6000700B7007400E179A379E07A8DF890
:1047CC000C0003EB0123ADF81C30617A237A03EB68
:1047DC000123811D0D3DADF81E3014F811C0637915
:1047EC008DF8203015F001058DF814C04DD10DF168
:1047FC00240ECDF810E004F10C082B465FFA83F977
:10480C00484508F1020809D918F801AC18F8029CBF
:10481C0009EB0A292EF813900133EFE74B00013313
:10482C000EEB400103F0FF0306915FFA85FE0EEBE1
:10483C000001E645C9B211D20DF1700E0EEB41012B
:10484C0004EB030E01359EF8018014F803E00233EB
:10485C000EEB082E21F84CECDBB2E6E712F4004F1D
:10486C000CBF01230323E1788DF80030A37803EB10
:10487C000123ADF80430C2F30E0203ABADF80220F5
:10488C00029369463846FFF7F7FE30461CB0BDE888
:10489C00F087042DF9D9053D2379ADB29D42F4D1B1
:1048AC00002BF2D0A378E1788DF80C5012F4004F65
:1048BC0003EB012304F105040CBF01200320C2F318
:1048CC000E02ADF8283003AB04948DF82400ADF83B
:1048DC0026200B9309A9D5E70B2DD6D903AD0822B9
:1048EC00A11C2846FFF786F90C2303FB0988E17A03
:1048FC00B8F808300B9513F4004F0CBF04220322B8
:10490C008DF82420A27AC3F30E0302EB0122ADF83A
:10491C002820ADF82630DDE7042DB6D9E178A37850
:10492C0003EB01232179ADF828304B1DDBB2AB42F0
:10493C00ABD112F4004F0CBF012303238DF82430AC
:10494C00C2F30E0203AB0534ADF826200B9304948E
:10495C008DF80C10BEE7002697E700BFA4210020BD
:10496C002DE9F341054601200E4690461F461BF0EB
:10497C004DFDFF2804461CD002211BF041FD424690
:10498C00002120461BF0A9FF002F4FF48A530093FF
:10499C0028460DBF2346FF232246FF22314600F056
:1049AC00E3FC054620461BF057FD284602B0BDE847
:1049BC00F0811825F9E7FEF7CEBBFEF77CBB0000B3
:1049CC0010B50268174B118819805188598051799C
:1049DC001971117959714FF48A51D980D18889068E
:1049EC0044BF4FF48B51D980D2888169520642BFA3
:1049FC00DA8842F04002DA800B4A137831B90B495D
:104A0C00C088088023F00203137010BD084C43F0DB
:104A1C000203137020461622FFF7ECF800232370D4
:104A2C00F3E700BF5A310020B4210020663100208A
:104A3C00B621002010B5184C23685879FCF7E2FE1B
:104A4C00FF2822D0154B03EB0010237F027B9A42E8
:104A5C001BD12368428819888A4205D04FF6FF7013
:104A6C00814212D1120410D42279023A012A06D9B9
:104A7C00A37B63B10848BDE81040FFF7CFBA198992
:104A8C00587907F09BFC0028F2D1002010BD024899
:104A9C00BDE81040FFF7F4BAC4310020A430002068
:104AAC0008B5FCF7AFFE012896BF024B0020185C3E
:104ABC0008BD00BFE83100201FB50223009300227F
:104ACC000DF10E030321FDF718FD38B9BDF80E00EA
:104ADC00003018BF012005B05DF804FB0020FAE798
:104AEC002DE9F04B1F469DF82030082B164623D895
:104AFC0003444FF0000B4FF0000C984209D1BC4519
:104B0C0008BFB34513D2B6EB0B0067EB0C01BDE845
:104B1C00F08B13F8014D4FEA0C294FEA0B2849EAA8
:104B2C001B69002514EB080B45EB090CE5E7BBEB07
:104B3C0006006CEB0701EAE700200021E7E7000024
:104B4C0008B50020FFF7A8F9FF20FDF7ABF9FFF738
:104B5C00AAF9FCF79BFC012182B20C48FFF7A6F8DE
:104B6C000B4B0C4A0C485221FEF7ACFBFBF766FCD6
:104B7C0001F026F906F000FA0AF028FE07F0A2FD73
:104B8C0000F020FFBDE80840FDF76ABAE8310020CC
:104B9C005A3100205831002068310020704708B588
:104BAC001CF0DCF920B91AF0BBFF08B90AF0FAFFC7
:104BBC00FEF7C7FABDE80840FEF7CFBA30B5084D8E
:104BCC0000234FF6FF719AB235F832408C4201D176
:104BDC000A4603E0844203F10103F4D1104630BDD0
:104BEC007C29030038B50546FFF7E8FF4FF6FF7246
:104BFC000146914218BF094B094C08BF094920884E
:104C0C0017BF03EBC1032A465A680749FFF7F0F9AF
:104C1C002088BDE83840FFF7C5B900BF7C290300E8
:104C2C009E2100204A2803007F1B030073B5154604
:104C3C00089C2E7816F0040F14BF052603269E42FE
:104C4C001A4608D9022000961D4A1E49FFF7B4F9EE
:104C5C00002002B070BDBDF8183021712060E380D7
:104C6C00A560A2812B7803F00103A3732B7803F0CA
:104C7C000403002B14BF01210021E1732978C1F337
:104C8C00C00161754FF00101217517D02846FFF75F
:104C9C00D0F8237D208202332375237D5A1CD2B297
:104CAC002275E95CA17402332375AB5CE374079B3A
:104CBC00A36115F052FC20770120CAE72382ECE7B0
:104CCC0074180300B3280300034B18780130C0B2EA
:104CDC00187000F07F0070473C1C002038B1074B67
:104CEC001B78012B04D1038843F0400303807047E9
:104CFC00022BFCD1038823F04003F7E7B3210020FB
:104D0C0068B1074A1378012B07D1064B1B78137037
:104D1C00037843F01003037001E0022BF8D07047C6
:104D2C00B1210020B221002073B51A4D2A78D40786
:104D3C0006462CD4184B1978184B187840074CBFE2
:104D4C00D9705970164912F00204098809D0134A17
:104D5C00144807F013FE2B7823F002032B7002B0DB
:104D6C0070BD114A10884FF6FB72904208D8CDE9FD
:104D7C0000360E4A0B4601462046FBF780FDEEE757
:104D8C000A460096054B0949FBF752FDE7E7002060
:104D9C00E5E700BFB42100203B1C00206831002057
:104DAC0058310020B6210020663100205A310020F5
:104DBC000020FFF7B9BF000070B50379012B044642
:104DCC000D46164631D883681B78DB0600D561B3D7
:104DDC00A37B13B9E37C0B2B27D0154B00221A8035
:104DEC00637D9342E37B0CBF08201046ABB9FEF702
:104DFC00A7FFA07CFEF7A4FF0B20FEF7A1FFE07C31
:104E0C00FEF79EFF2846FEF79BFF2046FFF7D8FDD6
:104E1C003046BDE87040FFF787BF40F00400FEF756
:104E2C008FFF208AFEF7A0FFE3E7002070BD00BFD4
:104E3C0058310020024B0A4601461868FFF7BCBFE8
:104E4C00E43100200021FFF7F5BF0022FFF7B4BFCB
:104E5C00F0B4064618460F4BBDF810401B780E4DAB
:104E6C00012B01D02F7827B1002129700846F0BC06
:104E7C00704709B9002AF9D14BB14FF657439C4200
:104E8C0005D033460A462146F0BCFEF704B9012191
:104E9C00ECE700BF3A1C0020B02100202DE9F04FB8
:104EAC00654E664C8446964699460F460FCE25466F
:104EBC000FC596E80F0085B085E80F00DDF83C8043
:104ECC00BDF838300093CDE901844B467246394623
:104EDC006046FFF7ABFEDFF88C9170B90025FEF74A
:104EEC000FFF162200215648FEF7E0FE002328464D
:104EFC00C9F8003005B0BDE8F08F524BA27C1A7097
:104F0C00514BC9F800401B78002B35D0FFF755FDED
:104F1C004E4902460220FFF76BF82168A2894B79B3
:104F2C004988009102204A49FFF762F80220FFF7F6
:104F3C0025F818B123685888FFF754FEE37B23B19A
:104F4C00228A44490220FFF753F8A268E17CA37C33
:104F5C001278009102204049FFF74AF8207DA2897F
:104F6C00A168121A01440123022092B2FEF7D8FF65
:104F7C003A490220FFF720F83048FFF721FD2F486F
:104F8C00FCF705FA05460028A9D1B8F1000F25D188
:104F9C002168E6880B88E07C0196BA1E498800914E
:104FAC00032A8CBF002201220121FFF751FF064684
:104FBC0038B923685B79FF2B37D0FFF73BFD0546EB
:104FCC008DE72368DB889A06F3D4254C1B48012116
:104FDC002170FFF73AFF2570354680E7B8F814309A
:104FEC009B07E6D47AE73046FCF7ACFC80463046AB
:104FFC00FCF752FA90B1236840465988FCF732FC12
:10500C0060B15046FFF7DCFC23688BF8048083F812
:10501C000580FFF70FFD002818BF05460137FCF788
:10502C0035FAFEB2B042DED859E70027DFF80CA003
:10503C00DFF834B0F3E700BFCC210020C4310020EE
:10504C00B62100203B1C00205A1B002062280300C4
:10505C006A2803008828030093280300B128030062
:10506C00B0210020E43100205A31002038B5D3881B
:10507C0013F0200F0CBF522449240546084659054D
:10508C0044BF083CE4B21A0544BF083CE4B21B041C
:10509C0044BF023CE4B2032D11D8DFE805F0050251
:1050AC000A0EC0B222F05EFFFEF70FF8201AC0B253
:1050BC0038BDC0B214F09EFFF6E7013CE4B24FF6E7
:1050CC00FD70F1E742540844120A42707047425492
:1050DC000144130A4B70130C120E8B70CA7070477C
:1050EC0070B5064614460D4609B9317070BD0B7883
:1050FC00FF2B01D10370F9E70846FEF7B3FE84429B
:10510C0028BF0446E4B22246691C701CFEF772FDEF
:10511C003470EBE770B5054614460E4611B969704C
:10512C00297070BD0B78FF2B05D14B78FF2B02D16A
:10513C0003704370F5E73046FEF799FE844228BFB2
:10514C000446A4B22246B11CA81CFEF753FD2C70D9
:10515C00240A6C70E5E7F0B5002B3ED0042A3ED84B
:10516C00551E0023ED0016461C46D6B9042A10D055
:10517C00D2000121501E01FA00F020421EBF9140C6
:10518C0049420C4318421EBF4FF0FF3101FA02F2A4
:10519C0013439C4227DCB4BF4FF0FF30002040B2D9
:1051AC00F0BD60B1871917F8017CAF403C438F19F3
:1051BC00013E17F8017CAF403B43083DD5E707465D
:1051CC00F3E770B1831813F8013C8C1814F8014CF8
:1051DC00A34208D802F1FF3207D3002AF1D10020F4
:1051EC00DEE70346F1E70120DAE74FF0FF30D7E7BF
:1051FC00054A0023D15C814202D31344587870478E
:10520C000233DBB2F6E700BF382803002838072842
:10521C008CBF00200120704700F0E000A0280DD0CA
:10522C0004D810B1802807D0FF207047C02807D0C1
:10523C00E028F9D11F2070471C2070471D207047B3
:10524C001E20704700F01F007047000010B50C4680
:10525C0008B9FEF72BFE024B18715C7110BD00BF34
:10526C00EA310020124B70B516464FF48A52598021
:10527C00DA80104B104A1B88104C002B14BF0421F1
:10528C00002108431178002918BF10210843207011
:10529C0063B163701B0AA3700325FFF715FD6B1C2C
:1052AC006055E654064B02351D8070BD0125F4E7B0
:1052BC00EA310020EE210020EC210020F831002002
:1052CC00F6310020034A04491388C8540133138073
:1052DC00704700BFF6310020F831002010B50446AD
:1052EC00C0B2FFF7EFFF200ABDE81040FFF7EABF9E
:1052FC00034B18780130C0B2187000F07F00704773
:10530C00F12100201FB5030A8DF80E300323009302
:10531C0003AB8DF80D0000F0BBF805B05DF804FB95
:10532C0030B585B00024ADF80A20021D92B2012AD6
:10533C001D46ADF80840ADF80610ADF8044003D991
:10534C004FF6FF72904207D1064A2B46127801A9FC
:10535C0021F052F805B030BD014601AA204621F0DB
:10536C0011F9F7E73D1C00202DE9F74FFF2A98466D
:10537C001DBF464B1B689C5C002418BF6408B8F129
:10538C00FF0F1EBF414B1B6813F808700E46814679
:10539C0014BF7F0800271546FFF7AAFF4FEA192311
:1053AC008DF800008DF803600621360A68468DF8EA
:1053BC0004608DF801908DF802308DF805401BF0DB
:1053CC00B3F9FF28064604D11824204603B0BDE8E3
:1053DC00F08F4FEA440B0BF1070A0AEB4701C9B2F5
:1053EC001BF056F90028EFD10446A3451BD10BF155
:1053FC0006013A4601F0FE0130461BF010FA5FFA46
:10540C008AF44FF0000A5FFA8AF5AF4223D833468C
:10541C00BDF8302006214846FFF782FF044630468F
:10542C001BF01AF8D1E7214628461BF0F3F9A11D11
:10543C000246C9B230461BF0F2F9611CC9B22846CB
:10544C001BF0E8F9E11D0246C9B2304602341BF0EC
:10545C00E6F9E4B2C9E76D00EDB2294640461BF00F
:10546C00D9F92146024630461BF0D9F9691CC9B25C
:10547C0040461BF0CFF9611C0246C9B230460234DB
:10548C001BF0CDF90AF1010AE4B2BCE7D81B0020ED
:10549C00F8B51C460E4617460546FFF729FF9DF842
:1054AC001810207020461BF03FF9FF2804460BD043
:1054BC0003463A4628463146FFF732FF054620465A
:1054CC001AF0CAFF2846F8BD1825FBE701207047E3
:1054DC0010B5084C23681B685879FCF7E6FC236868
:1054EC001B6858790CF028FA0020FFF7ABFC012060
:1054FC0010BD00BFE4310020194B002210B51A700A
:10550C00184B9B6840F6B732934227D9A3F6B831B3
:10551C0041F65732914211D8FBF7E8FC02281DD016
:10552C00FBF7E4FC0446C8B901200F4A0F49FEF70B
:10553C0043FD2046BDE810400CF004BDA3F51C5300
:10554C00103B4CF24F32934208D809490120FEF728
:10555C0033FD1DF091FB41F28830EBE710BD00BF2D
:10556C005C320020F4210020032A03000B2A0300E4
:10557C00212A030070B53A4B3A4C3B4D00261E7065
:10558C00237813F0010F4ED027F07EF9374A1368B9
:10559C00C01AB0F5FA7F106058D2237823F00103BB
:1055AC0023702B7823F001032B70314600200CF074
:1055BC004FFE23789E0744D527F066F92B4A536893
:1055CC00C01AB0F5FA7F506045D2237823F002035D
:1055DC0023702B7823F002032B70002101200CF098
:1055EC0037FE23785D0708D5204B022099680CF014
:1055FC002DFE237823F0040323702378180708D595
:10560C001A4B0320D9680CF021FE237823F00803F1
:10561C00237070BD227823F0010322F00102227066
:10562C002B700221C2E72B7823F001032B70C0E70B
:10563C00227823F0020322F0020222702B70022146
:10564C00CCE72B7823F002032B70CAE72B78D90711
:10565C00E0D40121AAE72B789A07E9D40121BDE710
:10566C004C3200200422002005220020F4210020CE
:10567C002DE9F843364D374B2E78374FDFF8EC8059
:10568C00DFF8EC9000241C70C6B1F10711D517F8A7
:10569C00240000F0F7FD60B9D223424649460120B0
:1056AC00FEF78AFC012303FA04F22B7823EA0203A7
:1056BC002B700134032C4FEA5606E5D1274C237886
:1056CC000133DBB2032B237015D1254B1B785A0702
:1056DC0013D527F0D9F8234A9368C01A2378906021
:1056EC000A2B02BF00F59F500C3090600A211E4817
:1056FC001AF0A8FC01E00A2BE7D02378042B07D181
:10570C00174B1B785B0703D527F0BEF8154B986039
:10571C002D7855B9E823154A15490120FEF74CFCA4
:10572C00144B25701D70BDE8F88323783B2B06D8ED
:10573C004FF47A710F48BDE8F8431AF083BCF2239A
:10574C000A4A0B490120FEF737FC00232370EAE7D5
:10575C0007220020F2210020482A03000622002004
:10576C0004220020F42100205C320020DC290300FC
:10577C00FC2903005432002038B504460D460CF0C9
:10578C00D9FD002840D0012D4DD12F4D2B7823B9B8
:10579C004FF47A712D481AF055FC2B78032C03F139
:1057AC0001032B701DD00F2C2FD0012C2CD127F0E6
:1057BC006BF8274A274B1860137843F001031370DA
:1057CC00254A137843F0010313704FF4FA71234800
:1057DC00BDE838401AF036BC214A137843F0020376
:1057EC002BE027F051F81A4A1A4B5860137843F003
:1057FC0002031370184A137843F00203E4E7144AC7
:10580C00137823F00403137038BD27F03DF8104AC9
:10581C00104B9860137843F0040313700E4A1378FE
:10582C0043F00403EFE7032CD6D00F2CE7D0012C68
:10583C00EAD10B4A137843F0010313700748BDE813
:10584C0038401AF0F3BB00BFF22100205432002084
:10585C0004220020F4210020072200204C320020DA
:10586C00052200200020704701207047002070475F
:10587C00002070477047704773B502AB03E9060010
:10588C000446019D1AF0E2F8064620461AF0ECF8A0
:10589C009DF800008EB1202C0FD82B78012B36D818
:1058AC0003EB4313384923444FF6FF7531F81320AB
:1058BC00AA4202D0013221F81320344B344A33F877
:1058CC00145032F814604FF6FF718D421CBF691CE6
:1058DC0023F8141004F0FD01092930D1998A928A19
:1058EC000144914235DA998233F81430B34204D32F
:1058FC00B54202D22046FDF7EFFB264B0025EA5CB1
:10590C00A24228D00135112DF9D102B070BD022B65
:10591C00D3D11D4B33F814204FF6FF718A421CBFB4
:10592C00013223F8142004F121014FF6FF7533F8EE
:10593C001120AA421CBF013223F81120BDE71D2CF7
:10594C00D2D1598F0144508F814201DA5987CBE76C
:10595C00928A9A82C8E714F002FE0F4B1B7883429E
:10596C00044603D8D5210D4800F018FB04EB0414B1
:10597C000B4A2C444FF6FF7132F814308B42C4D0D2
:10598C00013322F81430C0E726330020D632002031
:10599C0086320020DD2A0300191C0020542A030043
:1059AC0064320020502200210148FEF77FB900BF6D
:1059BC00D63200205022FF210148FEF777B900BFF4
:1059CC008632002008B5FFF7EDFFBDE80840FFF771
:1059DC00F1BF000010B5104C1049A16103232166E2
:1059EC000F491022C4E904330E4BE361C4E91912C8
:1059FC0000230D49A362E01D6362E3622367E36643
:105A0C00636722622BF08EFD084920462BF08AFD3D
:105A1C002023A37110BD00BF00340020EE2A030028
:105A2C000822002018220020F72A0300FB2A03007A
:105A3C002DE9F84F1F4B16461A7881468A46984630
:105A4C000AB9FFF7C7FF182707FB09873D6FD7F87F
:105A5C006CB05D452BD9BC6E796E641BB44228BF0B
:105A6C0034462944504622462BF090FCBB6E25440C
:105A7C00A244361BAB4208BF0025ABEB050B5E45C1
:105A8C0028BF5E4656B1182303FB09833246596E74
:105A9C00504629442BF07AFC3444354424B1182365
:105AAC0003FB0988C8F870502046BDE8F88F002425
:105ABC00E3E700BF00340020F8B504460E46174655
:105ACC0004F01DF83A46054631462046FFF7B0FF74
:105ADC000446284604F019F82046F8BD2DE9F84391
:105AEC00124D1E462B788146884617460BB9FFF798
:105AFC0071FF04F004F8696900244FF0180C0CFBDA
:105B0C0004535A6E2AB10134A142F8DC4FF0FF3431
:105B1C0007E0A142FADDC3E918989F661A67DA66B6
:105B2C005E6703F0F2FF2046BDE8F88300340020E6
:105B3C00FFF750BF0122114608B5042003F024FEE4
:105B4C00154B1A6842F001021A60DA6842F0807252
:105B5C00DA604FF06043114AC3F8B02F104A0021AD
:105B6C000220C3F8001EC3F8801EC2F8F0001520F6
:105B7C001061C3F8401E0B490B4808600B49C3F871
:105B8C00801E4FF48071C2F80413D3F8002E0A4320
:105B9C00C3F8002E08BD00BFF0ED00E055CEACC53B
:105BAC00000004E0001000E0FF0300400D000100C5
:105BBC0008B501210A4803F01DFC012015F091FFE6
:105BCC00FFF7B8FF15F091FFFFF7B2FF012340225A
:105BDC0004490548FFF782FF044B1860C00F08BD4D
:105BEC0000350A0028220020022B0300401C002054
:105BFC00024B1868003018BF01207047F0ED00E030
:105C0C00054A4170D12303701378C370090A81705F
:105C1C00591C117004207047682200202DE9F84FA0
